{
  "address": "0xaDf1AD952855f8EcF7e673368100B5021180d4e4",
  "abi": [
    {
      "inputs": [
        {
          "internalType": "address",
          "name": "vrfCoordinatorV2",
          "type": "address"
        },
        {
          "internalType": "uint256",
          "name": "entrance_fee",
          "type": "uint256"
        },
        {
          "internalType": "bytes32",
          "name": "keyhash",
          "type": "bytes32"
        },
        {
          "internalType": "uint256",
          "name": "subscriptionId",
          "type": "uint256"
        },
        {
          "internalType": "uint32",
          "name": "callbackGasLimit",
          "type": "uint32"
        },
        {
          "internalType": "uint256",
          "name": "interval",
          "type": "uint256"
        }
      ],
      "stateMutability": "nonpayable",
      "type": "constructor"
    },
    {
      "inputs": [],
      "name": "Lottery__NotEnoughEntranceFee",
      "type": "error"
    },
    {
      "inputs": [],
      "name": "Lottery__NotOpen",
      "type": "error"
    },
    {
      "inputs": [
        {
          "internalType": "uint256",
          "name": "balance",
          "type": "uint256"
        },
        {
          "internalType": "uint256",
          "name": "num_players",
          "type": "uint256"
        },
        {
          "internalType": "uint256",
          "name": "lottery_state",
          "type": "uint256"
        }
      ],
      "name": "Lottery__upkeepNotNeeded",
      "type": "error"
    },
    {
      "inputs": [
        {
          "internalType": "address",
          "name": "have",
          "type": "address"
        },
        {
          "internalType": "address",
          "name": "want",
          "type": "address"
        }
      ],
      "name": "OnlyCoordinatorCanFulfill",
      "type": "error"
    },
    {
      "inputs": [
        {
          "internalType": "address",
          "name": "have",
          "type": "address"
        },
        {
          "internalType": "address",
          "name": "owner",
          "type": "address"
        },
        {
          "internalType": "address",
          "name": "coordinator",
          "type": "address"
        }
      ],
      "name": "OnlyOwnerOrCoordinator",
      "type": "error"
    },
    {
      "inputs": [],
      "name": "Transaction__Failed",
      "type": "error"
    },
    {
      "inputs": [],
      "name": "ZeroAddress",
      "type": "error"
    },
    {
      "anonymous": false,
      "inputs": [
        {
          "indexed": false,
          "internalType": "address",
          "name": "vrfCoordinator",
          "type": "address"
        }
      ],
      "name": "CoordinatorSet",
      "type": "event"
    },
    {
      "anonymous": false,
      "inputs": [
        {
          "indexed": true,
          "internalType": "address",
          "name": "player",
          "type": "address"
        }
      ],
      "name": "LotteryEnter",
      "type": "event"
    },
    {
      "anonymous": false,
      "inputs": [
        {
          "indexed": true,
          "internalType": "address",
          "name": "from",
          "type": "address"
        },
        {
          "indexed": true,
          "internalType": "address",
          "name": "to",
          "type": "address"
        }
      ],
      "name": "OwnershipTransferRequested",
      "type": "event"
    },
    {
      "anonymous": false,
      "inputs": [
        {
          "indexed": true,
          "internalType": "address",
          "name": "from",
          "type": "address"
        },
        {
          "indexed": true,
          "internalType": "address",
          "name": "to",
          "type": "address"
        }
      ],
      "name": "OwnershipTransferred",
      "type": "event"
    },
    {
      "anonymous": false,
      "inputs": [
        {
          "indexed": true,
          "internalType": "uint256",
          "name": "requestId",
          "type": "uint256"
        }
      ],
      "name": "RandomWinnerRequest",
      "type": "event"
    },
    {
      "anonymous": false,
      "inputs": [
        {
          "indexed": true,
          "internalType": "address",
          "name": "winner",
          "type": "address"
        }
      ],
      "name": "WinnersPicked",
      "type": "event"
    },
    {
      "inputs": [],
      "name": "NUM_WORDS",
      "outputs": [
        {
          "internalType": "uint32",
          "name": "",
          "type": "uint32"
        }
      ],
      "stateMutability": "view",
      "type": "function"
    },
    {
      "inputs": [],
      "name": "REQUEST_CONFIRMATIONS",
      "outputs": [
        {
          "internalType": "uint16",
          "name": "",
          "type": "uint16"
        }
      ],
      "stateMutability": "view",
      "type": "function"
    },
    {
      "inputs": [],
      "name": "acceptOwnership",
      "outputs": [],
      "stateMutability": "nonpayable",
      "type": "function"
    },
    {
      "inputs": [
        {
          "internalType": "bytes",
          "name": "",
          "type": "bytes"
        }
      ],
      "name": "checkUpkeep",
      "outputs": [
        {
          "internalType": "bool",
          "name": "upkeepNeeded",
          "type": "bool"
        },
        {
          "internalType": "bytes",
          "name": "",
          "type": "bytes"
        }
      ],
      "stateMutability": "view",
      "type": "function"
    },
    {
      "inputs": [],
      "name": "enterLottery",
      "outputs": [],
      "stateMutability": "payable",
      "type": "function"
    },
    {
      "inputs": [],
      "name": "getBlockConfirmations",
      "outputs": [
        {
          "internalType": "uint256",
          "name": "",
          "type": "uint256"
        }
      ],
      "stateMutability": "pure",
      "type": "function"
    },
    {
      "inputs": [],
      "name": "getCallbackGasLimit",
      "outputs": [
        {
          "internalType": "uint32",
          "name": "",
          "type": "uint32"
        }
      ],
      "stateMutability": "view",
      "type": "function"
    },
    {
      "inputs": [],
      "name": "getEntranceFee",
      "outputs": [
        {
          "internalType": "uint256",
          "name": "",
          "type": "uint256"
        }
      ],
      "stateMutability": "view",
      "type": "function"
    },
    {
      "inputs": [],
      "name": "getInterval",
      "outputs": [
        {
          "internalType": "uint256",
          "name": "",
          "type": "uint256"
        }
      ],
      "stateMutability": "view",
      "type": "function"
    },
    {
      "inputs": [],
      "name": "getLastTimeStamp",
      "outputs": [
        {
          "internalType": "uint256",
          "name": "",
          "type": "uint256"
        }
      ],
      "stateMutability": "view",
      "type": "function"
    },
    {
      "inputs": [],
      "name": "getLotteryState",
      "outputs": [
        {
          "internalType": "enum Lottery.LotteryState",
          "name": "",
          "type": "uint8"
        }
      ],
      "stateMutability": "view",
      "type": "function"
    },
    {
      "inputs": [],
      "name": "getNumOfPlayers",
      "outputs": [
        {
          "internalType": "uint256",
          "name": "",
          "type": "uint256"
        }
      ],
      "stateMutability": "view",
      "type": "function"
    },
    {
      "inputs": [],
      "name": "getNumWords",
      "outputs": [
        {
          "internalType": "uint256",
          "name": "",
          "type": "uint256"
        }
      ],
      "stateMutability": "pure",
      "type": "function"
    },
    {
      "inputs": [
        {
          "internalType": "uint256",
          "name": "index",
          "type": "uint256"
        }
      ],
      "name": "getPlayers",
      "outputs": [
        {
          "internalType": "address",
          "name": "",
          "type": "address"
        }
      ],
      "stateMutability": "view",
      "type": "function"
    },
    {
      "inputs": [],
      "name": "getRecentWinner",
      "outputs": [
        {
          "internalType": "address",
          "name": "",
          "type": "address"
        }
      ],
      "stateMutability": "view",
      "type": "function"
    },
    {
      "inputs": [],
      "name": "getSubscriptionId",
      "outputs": [
        {
          "internalType": "uint256",
          "name": "",
          "type": "uint256"
        }
      ],
      "stateMutability": "view",
      "type": "function"
    },
    {
      "inputs": [],
      "name": "owner",
      "outputs": [
        {
          "internalType": "address",
          "name": "",
          "type": "address"
        }
      ],
      "stateMutability": "view",
      "type": "function"
    },
    {
      "inputs": [
        {
          "internalType": "bytes",
          "name": "",
          "type": "bytes"
        }
      ],
      "name": "performUpkeep",
      "outputs": [],
      "stateMutability": "nonpayable",
      "type": "function"
    },
    {
      "inputs": [
        {
          "internalType": "uint256",
          "name": "requestId",
          "type": "uint256"
        },
        {
          "internalType": "uint256[]",
          "name": "randomWords",
          "type": "uint256[]"
        }
      ],
      "name": "rawFulfillRandomWords",
      "outputs": [],
      "stateMutability": "nonpayable",
      "type": "function"
    },
    {
      "inputs": [],
      "name": "s_vrfCoordinator",
      "outputs": [
        {
          "internalType": "contract IVRFCoordinatorV2Plus",
          "name": "",
          "type": "address"
        }
      ],
      "stateMutability": "view",
      "type": "function"
    },
    {
      "inputs": [
        {
          "internalType": "address",
          "name": "_vrfCoordinator",
          "type": "address"
        }
      ],
      "name": "setCoordinator",
      "outputs": [],
      "stateMutability": "nonpayable",
      "type": "function"
    },
    {
      "inputs": [
        {
          "internalType": "enum Lottery.LotteryState",
          "name": "_state",
          "type": "uint8"
        }
      ],
      "name": "setLotteryStateForTest",
      "outputs": [],
      "stateMutability": "nonpayable",
      "type": "function"
    },
    {
      "inputs": [
        {
          "internalType": "address",
          "name": "to",
          "type": "address"
        }
      ],
      "name": "transferOwnership",
      "outputs": [],
      "stateMutability": "nonpayable",
      "type": "function"
    }
  ],
  "transactionHash": "0xbc3856d645d86f1d55950e2c45b7086dd497a53843852e65e9d3f2a5bec1ab4d",
  "args": [
    "0x9DdfaCa8183c41ad55329BdeeD9F6A8d53168B1B",
    "1000000",
    "0x787d74caea10b2b357790d5b5247c2f63d1d91572a9846f780606e4d953677ae",
    "50073877226116534276996172581020916480215752909754926972016824892030690781075",
    "2500000",
    "300"
  ],
  "numDeployments": 11,
  "solcInputHash": "be8bccab0b874832863959131ff25561",
  "bytecode": "0x6101206040523480156200001257600080fd5b50604051620026ef380380620026ef8339818101604052810190620000389190620003e8565b85338060008073ffffffffffffffffffffffffffffffffffffffff168273ffffffffffffffffffffffffffffffffffffffff161415620000af576040517f08c379a0000000000000000000000000000000000000000000000000000000008152600401620000a690620004d2565b60405180910390fd5b816000806101000a81548173ffffffffffffffffffffffffffffffffffffffff021916908373ffffffffffffffffffffffffffffffffffffffff160217905550600073ffffffffffffffffffffffffffffffffffffffff168173ffffffffffffffffffffffffffffffffffffffff1614620001365762000135816200025c60201b60201c565b5b505050600073ffffffffffffffffffffffffffffffffffffffff168173ffffffffffffffffffffffffffffffffffffffff161415620001a1576040517fd92e233d00000000000000000000000000000000000000000000000000000000815260040160405180910390fd5b80600260006101000a81548173ffffffffffffffffffffffffffffffffffffffff021916908373ffffffffffffffffffffffffffffffffffffffff1602179055505084608081815250508360a081815250508260c081815250508163ffffffff1660e08163ffffffff1660e01b815250506000600460146101000a81548160ff021916908360018111156200023b576200023a6200057f565b5b0217905550426005819055508061010081815250505050505050506200066d565b3373ffffffffffffffffffffffffffffffffffffffff168173ffffffffffffffffffffffffffffffffffffffff161415620002ce576040517f08c379a0000000000000000000000000000000000000000000000000000000008152600401620002c590620004f4565b60405180910390fd5b80600160006101000a81548173ffffffffffffffffffffffffffffffffffffffff021916908373ffffffffffffffffffffffffffffffffffffffff1602179055508073ffffffffffffffffffffffffffffffffffffffff1660008054906101000a900473ffffffffffffffffffffffffffffffffffffffff1673ffffffffffffffffffffffffffffffffffffffff167fed8889f560326eb138920d842192f0eb3dd22b4f139c87a2c57538e05bae127860405160405180910390a350565b6000815190506200039d8162000605565b92915050565b600081519050620003b4816200061f565b92915050565b600081519050620003cb8162000639565b92915050565b600081519050620003e28162000653565b92915050565b60008060008060008060c08789031215620004085762000407620005ae565b5b60006200041889828a016200038c565b96505060206200042b89828a01620003ba565b95505060406200043e89828a01620003a3565b94505060606200045189828a01620003ba565b93505060806200046489828a01620003d1565b92505060a06200047789828a01620003ba565b9150509295509295509295565b60006200049360188362000516565b9150620004a082620005b3565b602082019050919050565b6000620004ba60178362000516565b9150620004c782620005dc565b602082019050919050565b60006020820190508181036000830152620004ed8162000484565b9050919050565b600060208201905081810360008301526200050f81620004ab565b9050919050565b600082825260208201905092915050565b6000620005348262000545565b9050919050565b6000819050919050565b600073ffffffffffffffffffffffffffffffffffffffff82169050919050565b6000819050919050565b600063ffffffff82169050919050565b7f4e487b7100000000000000000000000000000000000000000000000000000000600052602160045260246000fd5b600080fd5b7f43616e6e6f7420736574206f776e657220746f207a65726f0000000000000000600082015250565b7f43616e6e6f74207472616e7366657220746f2073656c66000000000000000000600082015250565b620006108162000527565b81146200061c57600080fd5b50565b6200062a816200053b565b81146200063657600080fd5b50565b620006448162000565565b81146200065057600080fd5b50565b6200065e816200056f565b81146200066a57600080fd5b50565b60805160a05160c05160e05160e01c6101005161201e620006d16000396000818161095d0152610d7001526000818161077b0152610f6c01526000818161074a0152610f44015260006107240152600081816105390152610e36015261201e6000f3fe6080604052600436106101405760003560e01c806372cf6e34116100b6578063b7cddfe01161006f578063b7cddfe014610429578063c1af578514610454578063c1c244e81461045e578063de3d9fb714610489578063de8be8e7146104b4578063f2fde38b146104df57610140565b806372cf6e341461033d57806379ba5097146103685780638da5cb5b1461037f5780638ea98117146103aa57806391ad27b4146103d35780639eccacf6146103fe57610140565b8063473f1ddc11610108578063473f1ddc1461022857806353a2c19a14610253578063565429de1461027e57806367f082b0146102a95780636b68c03c146102d45780636e04ff0d146102ff57610140565b806304b5a6291461014557806309bc33a71461016e5780631fe543e3146101995780634585e33b146101c2578063460e2049146101eb575b600080fd5b34801561015157600080fd5b5061016c60048036038101906101679190611663565b610508565b005b34801561017a57600080fd5b50610183610535565b6040516101909190611b4f565b60405180910390f35b3480156101a557600080fd5b506101c060048036038101906101bb91906116ea565b61055d565b005b3480156101ce57600080fd5b506101e960048036038101906101e4919061161a565b610623565b005b3480156101f757600080fd5b50610212600480360381019061020d9190611690565b610871565b60405161021f91906119b6565b60405180910390f35b34801561023457600080fd5b5061023d6108b9565b60405161024a91906119b6565b60405180910390f35b34801561025f57600080fd5b506102686108e3565b6040516102759190611b4f565b60405180910390f35b34801561028a57600080fd5b506102936108f2565b6040516102a09190611b4f565b60405180910390f35b3480156102b557600080fd5b506102be6108ff565b6040516102cb9190611b34565b60405180910390f35b3480156102e057600080fd5b506102e9610904565b6040516102f69190611a7c565b60405180910390f35b34801561030b57600080fd5b506103266004803603810190610321919061161a565b61091b565b604051610334929190611a31565b60405180910390f35b34801561034957600080fd5b506103526109c7565b60405161035f9190611ba1565b60405180910390f35b34801561037457600080fd5b5061037d6109cc565b005b34801561038b57600080fd5b50610394610b61565b6040516103a191906119b6565b60405180910390f35b3480156103b657600080fd5b506103d160048036038101906103cc91906115ed565b610b8a565b005b3480156103df57600080fd5b506103e8610d6c565b6040516103f59190611b4f565b60405180910390f35b34801561040a57600080fd5b50610413610d94565b6040516104209190611a61565b60405180910390f35b34801561043557600080fd5b5061043e610dba565b60405161044b9190611b4f565b60405180910390f35b61045c610dc7565b005b34801561046a57600080fd5b50610473610f36565b6040516104809190611b4f565b60405180910390f35b34801561049557600080fd5b5061049e610f40565b6040516104ab9190611b4f565b60405180910390f35b3480156104c057600080fd5b506104c9610f68565b6040516104d69190611ba1565b60405180910390f35b3480156104eb57600080fd5b50610506600480360381019061050191906115ed565b610f90565b005b80600460146101000a81548160ff0219169083600181111561052d5761052c611e5c565b5b021790555050565b60007f0000000000000000000000000000000000000000000000000000000000000000905090565b600260009054906101000a900473ffffffffffffffffffffffffffffffffffffffff1673ffffffffffffffffffffffffffffffffffffffff163373ffffffffffffffffffffffffffffffffffffffff16146106135733600260009054906101000a900473ffffffffffffffffffffffffffffffffffffffff166040517f1cf993f400000000000000000000000000000000000000000000000000000000815260040161060a9291906119d1565b60405180910390fd5b61061e838383610fa4565b505050565b600061063d6040518060200160405280600081525061091b565b509050806106ac5747600380549050600460149054906101000a900460ff16600181111561066e5761066d611e5c565b5b6040517fbcf5e91e0000000000000000000000000000000000000000000000000000000081526004016106a393929190611b6a565b60405180910390fd5b6001600460146101000a81548160ff021916908360018111156106d2576106d1611e5c565b5b02179055506000600260009054906101000a900473ffffffffffffffffffffffffffffffffffffffff1673ffffffffffffffffffffffffffffffffffffffff16639b1c385e6040518060c001604052807f000000000000000000000000000000000000000000000000000000000000000081526020017f00000000000000000000000000000000000000000000000000000000000000008152602001600361ffff1681526020017f000000000000000000000000000000000000000000000000000000000000000063ffffffff168152602001600163ffffffff1681526020016107cc6040518060200160405280600015158152506111d7565b8152506040518263ffffffff1660e01b81526004016107eb9190611b12565b602060405180830381600087803b15801561080557600080fd5b505af1158015610819573d6000803e3d6000fd5b505050506040513d601f19601f8201168201806040525081019061083d91906116bd565b9050807f22578e7c9f4589d02e41404606e828e2076db3a91811ebab7d80cb87a491d13b60405160405180910390a2505050565b60006003828154811061088757610886611e8b565b5b9060005260206000200160009054906101000a900473ffffffffffffffffffffffffffffffffffffffff169050919050565b6000600460009054906101000a900473ffffffffffffffffffffffffffffffffffffffff16905090565b6000600163ffffffff16905090565b6000600380549050905090565b600381565b6000600460149054906101000a900460ff16905090565b60006060600080600181111561093457610933611e5c565b5b600460149054906101000a900460ff16600181111561095657610955611e5c565b5b14905060007f00000000000000000000000000000000000000000000000000000000000000006005544261098a9190611c5b565b119050600080600380549050119050600080471190508380156109aa5750825b80156109b35750815b80156109bc5750805b955050505050915091565b600181565b600160009054906101000a900473ffffffffffffffffffffffffffffffffffffffff1673ffffffffffffffffffffffffffffffffffffffff163373ffffffffffffffffffffffffffffffffffffffff1614610a5c576040517f08c379a0000000000000000000000000000000000000000000000000000000008152600401610a5390611a97565b60405180910390fd5b60008060009054906101000a900473ffffffffffffffffffffffffffffffffffffffff169050336000806101000a81548173ffffffffffffffffffffffffffffffffffffffff021916908373ffffffffffffffffffffffffffffffffffffffff1602179055506000600160006101000a81548173ffffffffffffffffffffffffffffffffffffffff021916908373ffffffffffffffffffffffffffffffffffffffff1602179055503373ffffffffffffffffffffffffffffffffffffffff168173ffffffffffffffffffffffffffffffffffffffff167f8be0079c531659141344cd1fd0a4f28419497f9722a3daafe3b4186f6b6457e060405160405180910390a350565b60008060009054906101000a900473ffffffffffffffffffffffffffffffffffffffff16905090565b610b92610b61565b73ffffffffffffffffffffffffffffffffffffffff163373ffffffffffffffffffffffffffffffffffffffff1614158015610c1b5750600260009054906101000a900473ffffffffffffffffffffffffffffffffffffffff1673ffffffffffffffffffffffffffffffffffffffff163373ffffffffffffffffffffffffffffffffffffffff1614155b15610c8a5733610c29610b61565b600260009054906101000a900473ffffffffffffffffffffffffffffffffffffffff166040517f061db9c1000000000000000000000000000000000000000000000000000000008152600401610c81939291906119fa565b60405180910390fd5b600073ffffffffffffffffffffffffffffffffffffffff168173ffffffffffffffffffffffffffffffffffffffff161415610cf1576040517fd92e233d00000000000000000000000000000000000000000000000000000000815260040160405180910390fd5b80600260006101000a81548173ffffffffffffffffffffffffffffffffffffffff021916908373ffffffffffffffffffffffffffffffffffffffff1602179055507fd1a6a14209a385a964d036e404cb5cfb71f4000cdb03c9366292430787261be681604051610d6191906119b6565b60405180910390a150565b60007f0000000000000000000000000000000000000000000000000000000000000000905090565b600260009054906101000a900473ffffffffffffffffffffffffffffffffffffffff1681565b6000600361ffff16905090565b60006001811115610ddb57610dda611e5c565b5b600460149054906101000a900460ff166001811115610dfd57610dfc611e5c565b5b14610e34576040517fe76be6fc00000000000000000000000000000000000000000000000000000000815260040160405180910390fd5b7f0000000000000000000000000000000000000000000000000000000000000000341015610e8e576040517fd843bb4b00000000000000000000000000000000000000000000000000000000815260040160405180910390fd5b6003339080600181540180825580915050600190039060005260206000200160009091909190916101000a81548173ffffffffffffffffffffffffffffffffffffffff021916908373ffffffffffffffffffffffffffffffffffffffff1602179055503373ffffffffffffffffffffffffffffffffffffffff167f1d64fb5ba9f2548c5b98468d58f25b87b9e866afee0122e92d9fe722bf85076c60405160405180910390a2565b6000600554905090565b60007f0000000000000000000000000000000000000000000000000000000000000000905090565b60007f0000000000000000000000000000000000000000000000000000000000000000905090565b610f9861126f565b610fa1816112ff565b50565b600060038054905083836000818110610fc057610fbf611e8b565b5b90506020020135610fd19190611dcd565b9050600060038281548110610fe957610fe8611e8b565b5b9060005260206000200160009054906101000a900473ffffffffffffffffffffffffffffffffffffffff16905080600460006101000a81548173ffffffffffffffffffffffffffffffffffffffff021916908373ffffffffffffffffffffffffffffffffffffffff1602179055506000600460146101000a81548160ff0219169083600181111561107d5761107c611e5c565b5b0217905550600067ffffffffffffffff81111561109d5761109c611eba565b5b6040519080825280602002602001820160405280156110cb5781602001602082028036833780820191505090505b50600390805190602001906110e192919061142c565b504260058190555060008173ffffffffffffffffffffffffffffffffffffffff164760405161110f906119a1565b60006040518083038185875af1925050503d806000811461114c576040519150601f19603f3d011682016040523d82523d6000602084013e611151565b606091505b505090508061118c576040517fb10a822b00000000000000000000000000000000000000000000000000000000815260040160405180910390fd5b8173ffffffffffffffffffffffffffffffffffffffff167f4326fd1a70264895443c9d02128c7a74a9c0fa6debe0925ac13d3dc22f7d0b7360405160405180910390a2505050505050565b60607f92fd13387c7fe7befbc38d303d6468778fb9731bc4583f17d92989c6fcfdeaaa8260405160240161120b9190611af7565b604051602081830303815290604052907bffffffffffffffffffffffffffffffffffffffffffffffffffffffff19166020820180517bffffffffffffffffffffffffffffffffffffffffffffffffffffffff83818316178352505050509050919050565b60008054906101000a900473ffffffffffffffffffffffffffffffffffffffff1673ffffffffffffffffffffffffffffffffffffffff163373ffffffffffffffffffffffffffffffffffffffff16146112fd576040517f08c379a00000000000000000000000000000000000000000000000000000000081526004016112f490611ab7565b60405180910390fd5b565b3373ffffffffffffffffffffffffffffffffffffffff168173ffffffffffffffffffffffffffffffffffffffff16141561136e576040517f08c379a000000000000000000000000000000000000000000000000000000000815260040161136590611ad7565b60405180910390fd5b80600160006101000a81548173ffffffffffffffffffffffffffffffffffffffff021916908373ffffffffffffffffffffffffffffffffffffffff1602179055508073ffffffffffffffffffffffffffffffffffffffff1660008054906101000a900473ffffffffffffffffffffffffffffffffffffffff1673ffffffffffffffffffffffffffffffffffffffff167fed8889f560326eb138920d842192f0eb3dd22b4f139c87a2c57538e05bae127860405160405180910390a350565b8280548282559060005260206000209081019282156114a5579160200282015b828111156114a45782518260006101000a81548173ffffffffffffffffffffffffffffffffffffffff021916908373ffffffffffffffffffffffffffffffffffffffff1602179055509160200191906001019061144c565b5b5090506114b291906114b6565b5090565b5b808211156114cf5760008160009055506001016114b7565b5090565b60006114e66114e184611be1565b611bbc565b90508281526020810184848401111561150257611501611ef8565b5b61150d848285611d5a565b509392505050565b60008135905061152481611faa565b92915050565b60008083601f8401126115405761153f611eee565b5b8235905067ffffffffffffffff81111561155d5761155c611ee9565b5b60208301915083602082028301111561157957611578611ef3565b5b9250929050565b600082601f83011261159557611594611eee565b5b81356115a58482602086016114d3565b91505092915050565b6000813590506115bd81611fc1565b92915050565b6000813590506115d281611fd1565b92915050565b6000815190506115e781611fd1565b92915050565b60006020828403121561160357611602611f02565b5b600061161184828501611515565b91505092915050565b6000602082840312156116305761162f611f02565b5b600082013567ffffffffffffffff81111561164e5761164d611efd565b5b61165a84828501611580565b91505092915050565b60006020828403121561167957611678611f02565b5b6000611687848285016115ae565b91505092915050565b6000602082840312156116a6576116a5611f02565b5b60006116b4848285016115c3565b91505092915050565b6000602082840312156116d3576116d2611f02565b5b60006116e1848285016115d8565b91505092915050565b60008060006040848603121561170357611702611f02565b5b6000611711868287016115c3565b935050602084013567ffffffffffffffff81111561173257611731611efd565b5b61173e8682870161152a565b92509250509250925092565b61175381611c8f565b82525050565b61176281611ca1565b82525050565b61177181611ca1565b82525050565b61178081611cad565b82525050565b600061179182611c12565b61179b8185611c1d565b93506117ab818560208601611d69565b6117b481611f07565b840191505092915050565b60006117ca82611c12565b6117d48185611c2e565b93506117e4818560208601611d69565b6117ed81611f07565b840191505092915050565b61180181611d12565b82525050565b61181081611d24565b82525050565b6000611823601683611c4a565b915061182e82611f18565b602082019050919050565b6000611846601683611c4a565b915061185182611f41565b602082019050919050565b6000611869600083611c3f565b915061187482611f6a565b600082019050919050565b600061188c601783611c4a565b915061189782611f6d565b602082019050919050565b6020820160008201516118b86000850182611759565b50505050565b600060c0830160008301516118d66000860182611777565b5060208301516118e96020860182611965565b5060408301516118fc6040860182611947565b50606083015161190f6060860182611983565b5060808301516119226080860182611983565b5060a083015184820360a086015261193a8282611786565b9150508091505092915050565b61195081611cca565b82525050565b61195f81611cca565b82525050565b61196e81611cf8565b82525050565b61197d81611cf8565b82525050565b61198c81611d02565b82525050565b61199b81611d02565b82525050565b60006119ac8261185c565b9150819050919050565b60006020820190506119cb600083018461174a565b92915050565b60006040820190506119e6600083018561174a565b6119f3602083018461174a565b9392505050565b6000606082019050611a0f600083018661174a565b611a1c602083018561174a565b611a29604083018461174a565b949350505050565b6000604082019050611a466000830185611768565b8181036020830152611a5881846117bf565b90509392505050565b6000602082019050611a7660008301846117f8565b92915050565b6000602082019050611a916000830184611807565b92915050565b60006020820190508181036000830152611ab081611816565b9050919050565b60006020820190508181036000830152611ad081611839565b9050919050565b60006020820190508181036000830152611af08161187f565b9050919050565b6000602082019050611b0c60008301846118a2565b92915050565b60006020820190508181036000830152611b2c81846118be565b905092915050565b6000602082019050611b496000830184611956565b92915050565b6000602082019050611b646000830184611974565b92915050565b6000606082019050611b7f6000830186611974565b611b8c6020830185611974565b611b996040830184611974565b949350505050565b6000602082019050611bb66000830184611992565b92915050565b6000611bc6611bd7565b9050611bd28282611d9c565b919050565b6000604051905090565b600067ffffffffffffffff821115611bfc57611bfb611eba565b5b611c0582611f07565b9050602081019050919050565b600081519050919050565b600082825260208201905092915050565b600082825260208201905092915050565b600081905092915050565b600082825260208201905092915050565b6000611c6682611cf8565b9150611c7183611cf8565b925082821015611c8457611c83611dfe565b5b828203905092915050565b6000611c9a82611cd8565b9050919050565b60008115159050919050565b6000819050919050565b6000819050611cc582611f96565b919050565b600061ffff82169050919050565b600073ffffffffffffffffffffffffffffffffffffffff82169050919050565b6000819050919050565b600063ffffffff82169050919050565b6000611d1d82611d36565b9050919050565b6000611d2f82611cb7565b9050919050565b6000611d4182611d48565b9050919050565b6000611d5382611cd8565b9050919050565b82818337600083830152505050565b60005b83811015611d87578082015181840152602081019050611d6c565b83811115611d96576000848401525b50505050565b611da582611f07565b810181811067ffffffffffffffff82111715611dc457611dc3611eba565b5b80604052505050565b6000611dd882611cf8565b9150611de383611cf8565b925082611df357611df2611e2d565b5b828206905092915050565b7f4e487b7100000000000000000000000000000000000000000000000000000000600052601160045260246000fd5b7f4e487b7100000000000000000000000000000000000000000000000000000000600052601260045260246000fd5b7f4e487b7100000000000000000000000000000000000000000000000000000000600052602160045260246000fd5b7f4e487b7100000000000000000000000000000000000000000000000000000000600052603260045260246000fd5b7f4e487b7100000000000000000000000000000000000000000000000000000000600052604160045260246000fd5b600080fd5b600080fd5b600080fd5b600080fd5b600080fd5b600080fd5b6000601f19601f8301169050919050565b7f4d7573742062652070726f706f736564206f776e657200000000000000000000600082015250565b7f4f6e6c792063616c6c61626c65206279206f776e657200000000000000000000600082015250565b50565b7f43616e6e6f74207472616e7366657220746f2073656c66000000000000000000600082015250565b60028110611fa757611fa6611e5c565b5b50565b611fb381611c8f565b8114611fbe57600080fd5b50565b60028110611fce57600080fd5b50565b611fda81611cf8565b8114611fe557600080fd5b5056fea2646970667358221220d8b38afb51fff713483ba1b826e25ed8b9c6fc031b0b7ce63ba0c3b3592cf02464736f6c63430008070033",
  "devdoc": {
    "kind": "dev",
    "methods": {},
    "version": 1
  },
  "userdoc": {
    "kind": "user",
    "methods": {
      "acceptOwnership()": {
        "notice": "Allows an ownership transfer to be completed by the recipient."
      },
      "owner()": {
        "notice": "Get the current owner"
      },
      "setCoordinator(address)": {
        "notice": "Sets the VRF Coordinator addressThis method should only be callable by the coordinator or contract owner"
      },
      "transferOwnership(address)": {
        "notice": "Allows an owner to begin transferring ownership to a new address."
      }
    },
    "version": 1
  },
  "storageLayout": {
    "storage": [
      {
        "astId": 48,
        "contract": "contracts/Lottery.sol:Lottery",
        "label": "s_owner",
        "offset": 0,
        "slot": "0",
        "type": "t_address"
      },
      {
        "astId": 50,
        "contract": "contracts/Lottery.sol:Lottery",
        "label": "s_pendingOwner",
        "offset": 0,
        "slot": "1",
        "type": "t_address"
      },
      {
        "astId": 250,
        "contract": "contracts/Lottery.sol:Lottery",
        "label": "s_vrfCoordinator",
        "offset": 0,
        "slot": "2",
        "type": "t_contract(IVRFCoordinatorV2Plus)399"
      },
      {
        "astId": 576,
        "contract": "contracts/Lottery.sol:Lottery",
        "label": "players",
        "offset": 0,
        "slot": "3",
        "type": "t_array(t_address_payable)dyn_storage"
      },
      {
        "astId": 590,
        "contract": "contracts/Lottery.sol:Lottery",
        "label": "s_recentWinner",
        "offset": 0,
        "slot": "4",
        "type": "t_address"
      },
      {
        "astId": 593,
        "contract": "contracts/Lottery.sol:Lottery",
        "label": "s_lotterystate",
        "offset": 20,
        "slot": "4",
        "type": "t_enum(LotteryState)571"
      },
      {
        "astId": 595,
        "contract": "contracts/Lottery.sol:Lottery",
        "label": "s_lastTimeStamp",
        "offset": 0,
        "slot": "5",
        "type": "t_uint256"
      }
    ],
    "types": {
      "t_address": {
        "encoding": "inplace",
        "label": "address",
        "numberOfBytes": "20"
      },
      "t_address_payable": {
        "encoding": "inplace",
        "label": "address payable",
        "numberOfBytes": "20"
      },
      "t_array(t_address_payable)dyn_storage": {
        "base": "t_address_payable",
        "encoding": "dynamic_array",
        "label": "address payable[]",
        "numberOfBytes": "32"
      },
      "t_contract(IVRFCoordinatorV2Plus)399": {
        "encoding": "inplace",
        "label": "contract IVRFCoordinatorV2Plus",
        "numberOfBytes": "20"
      },
      "t_enum(LotteryState)571": {
        "encoding": "inplace",
        "label": "enum Lottery.LotteryState",
        "numberOfBytes": "1"
      },
      "t_uint256": {
        "encoding": "inplace",
        "label": "uint256",
        "numberOfBytes": "32"
      }
    }
  }
}